{
  "_format": "hh-sol-artifact-1",
  "contractName": "ComplaintRegistry",
  "sourceName": "contracts/ComplaintRegistry.sol",
  "abi": [
    {
      "inputs": [],
      "stateMutability": "nonpayable",
      "type": "constructor"
    },
    {
      "anonymous": false,
      "inputs": [
        {
          "indexed": true,
          "internalType": "uint256",
          "name": "id",
          "type": "uint256"
        }
      ],
      "name": "ComplaintEscalated",
      "type": "event"
    },
    {
      "anonymous": false,
      "inputs": [
        {
          "indexed": true,
          "internalType": "uint256",
          "name": "id",
          "type": "uint256"
        }
      ],
      "name": "ComplaintResolved",
      "type": "event"
    },
    {
      "anonymous": false,
      "inputs": [
        {
          "indexed": true,
          "internalType": "uint256",
          "name": "id",
          "type": "uint256"
        },
        {
          "indexed": true,
          "internalType": "address",
          "name": "complainant",
          "type": "address"
        },
        {
          "indexed": false,
          "internalType": "string",
          "name": "description",
          "type": "string"
        },
        {
          "indexed": false,
          "internalType": "enum ComplaintRegistry.Category",
          "name": "category",
          "type": "uint8"
        }
      ],
      "name": "ComplaintSubmitted",
      "type": "event"
    },
    {
      "anonymous": false,
      "inputs": [
        {
          "indexed": true,
          "internalType": "address",
          "name": "official",
          "type": "address"
        }
      ],
      "name": "OfficialAdded",
      "type": "event"
    },
    {
      "anonymous": false,
      "inputs": [
        {
          "indexed": true,
          "internalType": "address",
          "name": "official",
          "type": "address"
        }
      ],
      "name": "OfficialRemoved",
      "type": "event"
    },
    {
      "anonymous": false,
      "inputs": [
        {
          "indexed": true,
          "internalType": "uint256",
          "name": "proposalId",
          "type": "uint256"
        },
        {
          "indexed": true,
          "internalType": "uint256",
          "name": "complaintId",
          "type": "uint256"
        },
        {
          "indexed": false,
          "internalType": "bool",
          "name": "isEscalation",
          "type": "bool"
        }
      ],
      "name": "ProposalCreated",
      "type": "event"
    },
    {
      "anonymous": false,
      "inputs": [
        {
          "indexed": true,
          "internalType": "uint256",
          "name": "proposalId",
          "type": "uint256"
        }
      ],
      "name": "ProposalExecuted",
      "type": "event"
    },
    {
      "anonymous": false,
      "inputs": [
        {
          "indexed": true,
          "internalType": "uint256",
          "name": "proposalId",
          "type": "uint256"
        },
        {
          "indexed": true,
          "internalType": "address",
          "name": "voter",
          "type": "address"
        },
        {
          "indexed": false,
          "internalType": "bool",
          "name": "support",
          "type": "bool"
        },
        {
          "indexed": false,
          "internalType": "uint256",
          "name": "weight",
          "type": "uint256"
        }
      ],
      "name": "Voted",
      "type": "event"
    },
    {
      "inputs": [
        {
          "internalType": "address",
          "name": "_official",
          "type": "address"
        }
      ],
      "name": "addOfficial",
      "outputs": [],
      "stateMutability": "nonpayable",
      "type": "function"
    },
    {
      "inputs": [
        {
          "internalType": "uint256",
          "name": "proposalId",
          "type": "uint256"
        },
        {
          "internalType": "bool",
          "name": "support",
          "type": "bool"
        }
      ],
      "name": "castVote",
      "outputs": [],
      "stateMutability": "nonpayable",
      "type": "function"
    },
    {
      "inputs": [],
      "name": "complaintCount",
      "outputs": [
        {
          "internalType": "uint256",
          "name": "",
          "type": "uint256"
        }
      ],
      "stateMutability": "view",
      "type": "function"
    },
    {
      "inputs": [
        {
          "internalType": "uint256",
          "name": "",
          "type": "uint256"
        }
      ],
      "name": "complaints",
      "outputs": [
        {
          "internalType": "address",
          "name": "complainant",
          "type": "address"
        },
        {
          "internalType": "string",
          "name": "description",
          "type": "string"
        },
        {
          "internalType": "uint256",
          "name": "timestamp",
          "type": "uint256"
        },
        {
          "internalType": "enum ComplaintRegistry.Status",
          "name": "status",
          "type": "uint8"
        },
        {
          "internalType": "enum ComplaintRegistry.Category",
          "name": "category",
          "type": "uint8"
        }
      ],
      "stateMutability": "view",
      "type": "function"
    },
    {
      "inputs": [
        {
          "internalType": "uint256",
          "name": "id",
          "type": "uint256"
        }
      ],
      "name": "escalateComplaint",
      "outputs": [],
      "stateMutability": "nonpayable",
      "type": "function"
    },
    {
      "inputs": [
        {
          "internalType": "uint256",
          "name": "proposalId",
          "type": "uint256"
        }
      ],
      "name": "executeProposal",
      "outputs": [],
      "stateMutability": "nonpayable",
      "type": "function"
    },
    {
      "inputs": [],
      "name": "getAllComplaints",
      "outputs": [
        {
          "components": [
            {
              "internalType": "address",
              "name": "complainant",
              "type": "address"
            },
            {
              "internalType": "string",
              "name": "description",
              "type": "string"
            },
            {
              "internalType": "uint256",
              "name": "timestamp",
              "type": "uint256"
            },
            {
              "internalType": "enum ComplaintRegistry.Status",
              "name": "status",
              "type": "uint8"
            },
            {
              "internalType": "enum ComplaintRegistry.Category",
              "name": "category",
              "type": "uint8"
            }
          ],
          "internalType": "struct ComplaintRegistry.Complaint[]",
          "name": "",
          "type": "tuple[]"
        }
      ],
      "stateMutability": "view",
      "type": "function"
    },
    {
      "inputs": [
        {
          "internalType": "uint256",
          "name": "id",
          "type": "uint256"
        }
      ],
      "name": "getComplaint",
      "outputs": [
        {
          "components": [
            {
              "internalType": "address",
              "name": "complainant",
              "type": "address"
            },
            {
              "internalType": "string",
              "name": "description",
              "type": "string"
            },
            {
              "internalType": "uint256",
              "name": "timestamp",
              "type": "uint256"
            },
            {
              "internalType": "enum ComplaintRegistry.Status",
              "name": "status",
              "type": "uint8"
            },
            {
              "internalType": "enum ComplaintRegistry.Category",
              "name": "category",
              "type": "uint8"
            }
          ],
          "internalType": "struct ComplaintRegistry.Complaint",
          "name": "",
          "type": "tuple"
        }
      ],
      "stateMutability": "view",
      "type": "function"
    },
    {
      "inputs": [
        {
          "internalType": "address",
          "name": "",
          "type": "address"
        }
      ],
      "name": "officials",
      "outputs": [
        {
          "internalType": "bool",
          "name": "",
          "type": "bool"
        }
      ],
      "stateMutability": "view",
      "type": "function"
    },
    {
      "inputs": [],
      "name": "owner",
      "outputs": [
        {
          "internalType": "address",
          "name": "",
          "type": "address"
        }
      ],
      "stateMutability": "view",
      "type": "function"
    },
    {
      "inputs": [],
      "name": "proposalCount",
      "outputs": [
        {
          "internalType": "uint256",
          "name": "",
          "type": "uint256"
        }
      ],
      "stateMutability": "view",
      "type": "function"
    },
    {
      "inputs": [
        {
          "internalType": "uint256",
          "name": "",
          "type": "uint256"
        }
      ],
      "name": "proposals",
      "outputs": [
        {
          "internalType": "uint256",
          "name": "complaintId",
          "type": "uint256"
        },
        {
          "internalType": "bool",
          "name": "isEscalation",
          "type": "bool"
        },
        {
          "internalType": "uint256",
          "name": "voteStart",
          "type": "uint256"
        },
        {
          "internalType": "uint256",
          "name": "voteEnd",
          "type": "uint256"
        },
        {
          "internalType": "uint256",
          "name": "forVotes",
          "type": "uint256"
        },
        {
          "internalType": "uint256",
          "name": "againstVotes",
          "type": "uint256"
        },
        {
          "internalType": "bool",
          "name": "executed",
          "type": "bool"
        }
      ],
      "stateMutability": "view",
      "type": "function"
    },
    {
      "inputs": [
        {
          "internalType": "uint256",
          "name": "complaintId",
          "type": "uint256"
        },
        {
          "internalType": "bool",
          "name": "isEscalation",
          "type": "bool"
        }
      ],
      "name": "proposeAction",
      "outputs": [
        {
          "internalType": "uint256",
          "name": "",
          "type": "uint256"
        }
      ],
      "stateMutability": "nonpayable",
      "type": "function"
    },
    {
      "inputs": [
        {
          "internalType": "address",
          "name": "_official",
          "type": "address"
        }
      ],
      "name": "removeOfficial",
      "outputs": [],
      "stateMutability": "nonpayable",
      "type": "function"
    },
    {
      "inputs": [
        {
          "internalType": "uint256",
          "name": "id",
          "type": "uint256"
        }
      ],
      "name": "resolveComplaint",
      "outputs": [],
      "stateMutability": "nonpayable",
      "type": "function"
    },
    {
      "inputs": [
        {
          "internalType": "string",
          "name": "_description",
          "type": "string"
        },
        {
          "internalType": "enum ComplaintRegistry.Category",
          "name": "_category",
          "type": "uint8"
        }
      ],
      "name": "submitComplaint",
      "outputs": [],
      "stateMutability": "nonpayable",
      "type": "function"
    },
    {
      "inputs": [],
      "name": "votingDelay",
      "outputs": [
        {
          "internalType": "uint256",
          "name": "",
          "type": "uint256"
        }
      ],
      "stateMutability": "view",
      "type": "function"
    },
    {
      "inputs": [],
      "name": "votingPeriod",
      "outputs": [
        {
          "internalType": "uint256",
          "name": "",
          "type": "uint256"
        }
      ],
      "stateMutability": "view",
      "type": "function"
    }
  ],
  "bytecode": "0x60806040526001600455606460055534801561001a57600080fd5b5033600260006101000a81548173ffffffffffffffffffffffffffffffffffffffff021916908373ffffffffffffffffffffffffffffffffffffffff1602179055506001600360003373ffffffffffffffffffffffffffffffffffffffff1673ffffffffffffffffffffffffffffffffffffffff16815260200190815260200160002060006101000a81548160ff021916908315150217905550612a42806100c36000396000f3fe608060405234801561001057600080fd5b50600436106101165760003560e01c8063683892b3116100a2578063ac840db011610071578063ac840db0146102d7578063d93321ef146102f3578063da35c66414610323578063dee8ae4314610341578063f760e1441461037157610116565b8063683892b3146102395780637e69e912146102695780638da5cb5b1461029d5780639a030aac146102bb57610116565b806315373e3d116100e957806315373e3d146101a957806320576298146101c55780632edea294146101e15780633932abb1146101ff5780634fea49541461021d57610116565b8063013cf08b1461011b57806302a251a3146101515780630d61b5191461016f5780630dac95391461018b575b600080fd5b610135600480360381019061013091906118f4565b61038d565b604051610148979695949392919061194b565b60405180910390f35b6101596103e9565b60405161016691906119ba565b60405180910390f35b610189600480360381019061018491906118f4565b6103ef565b005b61019361062b565b6040516101a09190611cac565b60405180910390f35b6101c360048036038101906101be9190611cfa565b610861565b005b6101df60048036038101906101da9190611e94565b610b6e565b005b6101e9610d1c565b6040516101f691906119ba565b60405180910390f35b610207610d22565b60405161021491906119ba565b60405180910390f35b61023760048036038101906102329190611f1c565b610d28565b005b610253600480360381019061024e9190611cfa565b610e56565b60405161026091906119ba565b60405180910390f35b610283600480360381019061027e91906118f4565b611098565b604051610294959493929190611fc0565b60405180910390f35b6102a5611190565b6040516102b2919061201a565b60405180910390f35b6102d560048036038101906102d091906118f4565b6111b6565b005b6102f160048036038101906102ec9190611f1c565b611387565b005b61030d60048036038101906103089190611f1c565b6114b5565b60405161031a9190612035565b60405180910390f35b61032b6114d5565b60405161033891906119ba565b60405180910390f35b61035b600480360381019061035691906118f4565b6114db565b60405161036891906120c6565b60405180910390f35b61038b600480360381019061038691906118f4565b611670565b005b60076020528060005260406000206000915090508060000154908060010160009054906101000a900460ff16908060020154908060030154908060040154908060050154908060060160009054906101000a900460ff16905087565b60055481565b60006007600083815260200190815260200160002090508060030154431161044c576040517f08c379a000000000000000000000000000000000000000000000000000000000815260040161044390612134565b60405180910390fd5b8060060160009054906101000a900460ff161561049e576040517f08c379a0000000000000000000000000000000000000000000000000000000008152600401610495906121a0565b60405180910390fd5b80600501548160040154116104e8576040517f08c379a00000000000000000000000000000000000000000000000000000000081526004016104df9061220c565b60405180910390fd5b6000600160008360000154815260200190815260200160002090508160010160009054906101000a900460ff161561057d5760028160030160006101000a81548160ff0219169083600281111561054257610541611ae1565b5b021790555081600001547f159fffda8d6a5ae3e98cf4d5b9fd72d19bb85b3c8a6b539d902072afd79a02f160405160405180910390a26105dc565b60018160030160006101000a81548160ff021916908360028111156105a5576105a4611ae1565b5b021790555081600001547fd26d73beab97391bb9b226331b35668847e983fc340816389ece17cac75fd2b260405160405180910390a25b60018260060160006101000a81548160ff021916908315150217905550827f712ae1383f79ac853f8d882153778e0260ef8f03b504e2866e0593e04d2b291f60405160405180910390a2505050565b60606000805467ffffffffffffffff81111561064a57610649611d44565b5b60405190808252806020026020018201604052801561068357816020015b610670611841565b8152602001906001900390816106685790505b5090506000600190505b600054811161085957600160008281526020019081526020016000206040518060a00160405290816000820160009054906101000a900473ffffffffffffffffffffffffffffffffffffffff1673ffffffffffffffffffffffffffffffffffffffff1673ffffffffffffffffffffffffffffffffffffffff16815260200160018201805461071a9061225b565b80601f01602080910402602001604051908101604052809291908181526020018280546107469061225b565b80156107935780601f1061076857610100808354040283529160200191610793565b820191906000526020600020905b81548152906001019060200180831161077657829003601f168201915b50505050508152602001600282015481526020016003820160009054906101000a900460ff1660028111156107cb576107ca611ae1565b5b60028111156107dd576107dc611ae1565b5b81526020016003820160019054906101000a900460ff16600681111561080657610805611ae1565b5b600681111561081857610817611ae1565b5b815250508260018361082a91906122bb565b8151811061083b5761083a6122ef565b5b602002602001018190525080806108519061231e565b91505061068d565b508091505090565b600360003373ffffffffffffffffffffffffffffffffffffffff1673ffffffffffffffffffffffffffffffffffffffff16815260200190815260200160002060009054906101000a900460ff16806109065750600260009054906101000a900473ffffffffffffffffffffffffffffffffffffffff1673ffffffffffffffffffffffffffffffffffffffff163373ffffffffffffffffffffffffffffffffffffffff16145b610945576040517f08c379a000000000000000000000000000000000000000000000000000000000815260040161093c906123b2565b60405180910390fd5b600060076000848152602001908152602001600020905080600201544310156109a3576040517f08c379a000000000000000000000000000000000000000000000000000000000815260040161099a9061241e565b60405180910390fd5b80600301544311156109ea576040517f08c379a00000000000000000000000000000000000000000000000000000000081526004016109e19061248a565b60405180910390fd5b8060070160003373ffffffffffffffffffffffffffffffffffffffff1673ffffffffffffffffffffffffffffffffffffffff16815260200190815260200160002060009054906101000a900460ff1615610a79576040517f08c379a0000000000000000000000000000000000000000000000000000000008152600401610a70906124f6565b60405180910390fd5b60018160070160003373ffffffffffffffffffffffffffffffffffffffff1673ffffffffffffffffffffffffffffffffffffffff16815260200190815260200160002060006101000a81548160ff0219169083151502179055508115610afa576001816004016000828254610aee9190612516565b92505081905550610b17565b6001816005016000828254610b0f9190612516565b925050819055505b3373ffffffffffffffffffffffffffffffffffffffff16837f7c2de587c00d75474a0c6c6fa96fd3b45dc974cd4e8a75f712bb84c950dce1b5846001604051610b6192919061258f565b60405180910390a3505050565b600080815480929190610b809061231e565b91905055506040518060a001604052803373ffffffffffffffffffffffffffffffffffffffff16815260200183815260200142815260200160006002811115610bcc57610bcb611ae1565b5b8152602001826006811115610be457610be3611ae1565b5b815250600160008054815260200190815260200160002060008201518160000160006101000a81548173ffffffffffffffffffffffffffffffffffffffff021916908373ffffffffffffffffffffffffffffffffffffffff1602179055506020820151816001019081610c57919061275a565b506040820151816002015560608201518160030160006101000a81548160ff02191690836002811115610c8d57610c8c611ae1565b5b021790555060808201518160030160016101000a81548160ff02191690836006811115610cbd57610cbc611ae1565b5b02179055509050503373ffffffffffffffffffffffffffffffffffffffff166000547f2522419e3c578d19730d45b4cf6f770aeb0ca23d27ce2a6a127977c1ef2656548484604051610d1092919061282c565b60405180910390a35050565b60005481565b60045481565b600260009054906101000a900473ffffffffffffffffffffffffffffffffffffffff1673ffffffffffffffffffffffffffffffffffffffff163373ffffffffffffffffffffffffffffffffffffffff1614610db8576040517f08c379a0000000000000000000000000000000000000000000000000000000008152600401610daf906128a8565b60405180910390fd5b6000600360008373ffffffffffffffffffffffffffffffffffffffff1673ffffffffffffffffffffffffffffffffffffffff16815260200190815260200160002060006101000a81548160ff0219169083151502179055508073ffffffffffffffffffffffffffffffffffffffff167f6870c940cab428231ba488bb666ecfb340724efd013cd7d4eaa6b26aa97f280860405160405180910390a250565b6000600360003373ffffffffffffffffffffffffffffffffffffffff1673ffffffffffffffffffffffffffffffffffffffff16815260200190815260200160002060009054906101000a900460ff1680610efd5750600260009054906101000a900473ffffffffffffffffffffffffffffffffffffffff1673ffffffffffffffffffffffffffffffffffffffff163373ffffffffffffffffffffffffffffffffffffffff16145b610f3c576040517f08c379a0000000000000000000000000000000000000000000000000000000008152600401610f33906123b2565b60405180910390fd5b60006002811115610f5057610f4f611ae1565b5b6001600085815260200190815260200160002060030160009054906101000a900460ff166002811115610f8657610f85611ae1565b5b14610fc6576040517f08c379a0000000000000000000000000000000000000000000000000000000008152600401610fbd90612914565b60405180910390fd5b6000600660008154610fd79061231e565b91905081905590506000600760008381526020019081526020016000209050848160000181905550838160010160006101000a81548160ff021916908315150217905550600454436110299190612516565b8160020181905550600554600454436110429190612516565b61104c9190612516565b816003018190555084827fc5d92676c2944e2921bf3603d2d31783068ba55412fcb335379e7a3f5f3ab32f866040516110859190612035565b60405180910390a3819250505092915050565b60016020528060005260406000206000915090508060000160009054906101000a900473ffffffffffffffffffffffffffffffffffffffff16908060010180546110e19061225b565b80601f016020809104026020016040519081016040528092919081815260200182805461110d9061225b565b801561115a5780601f1061112f5761010080835404028352916020019161115a565b820191906000526020600020905b81548152906001019060200180831161113d57829003601f168201915b5050505050908060020154908060030160009054906101000a900460ff16908060030160019054906101000a900460ff16905085565b600260009054906101000a900473ffffffffffffffffffffffffffffffffffffffff1681565b600360003373ffffffffffffffffffffffffffffffffffffffff1673ffffffffffffffffffffffffffffffffffffffff16815260200190815260200160002060009054906101000a900460ff168061125b5750600260009054906101000a900473ffffffffffffffffffffffffffffffffffffffff1673ffffffffffffffffffffffffffffffffffffffff163373ffffffffffffffffffffffffffffffffffffffff16145b61129a576040517f08c379a0000000000000000000000000000000000000000000000000000000008152600401611291906123b2565b60405180910390fd5b6000600160008381526020019081526020016000209050600060028111156112c5576112c4611ae1565b5b8160030160009054906101000a900460ff1660028111156112e9576112e8611ae1565b5b14611329576040517f08c379a000000000000000000000000000000000000000000000000000000000815260040161132090612980565b60405180910390fd5b60028160030160006101000a81548160ff0219169083600281111561135157611350611ae1565b5b0217905550817f159fffda8d6a5ae3e98cf4d5b9fd72d19bb85b3c8a6b539d902072afd79a02f160405160405180910390a25050565b600260009054906101000a900473ffffffffffffffffffffffffffffffffffffffff1673ffffffffffffffffffffffffffffffffffffffff163373ffffffffffffffffffffffffffffffffffffffff1614611417576040517f08c379a000000000000000000000000000000000000000000000000000000000815260040161140e906128a8565b60405180910390fd5b6001600360008373ffffffffffffffffffffffffffffffffffffffff1673ffffffffffffffffffffffffffffffffffffffff16815260200190815260200160002060006101000a81548160ff0219169083151502179055508073ffffffffffffffffffffffffffffffffffffffff167fcd902338c077954bb88183435a933f4d31a1251a6bc80aa0b0e6027111d6e8e860405160405180910390a250565b60036020528060005260406000206000915054906101000a900460ff1681565b60065481565b6114e3611841565b600160008381526020019081526020016000206040518060a00160405290816000820160009054906101000a900473ffffffffffffffffffffffffffffffffffffffff1673ffffffffffffffffffffffffffffffffffffffff1673ffffffffffffffffffffffffffffffffffffffff1681526020016001820180546115679061225b565b80601f01602080910402602001604051908101604052809291908181526020018280546115939061225b565b80156115e05780601f106115b5576101008083540402835291602001916115e0565b820191906000526020600020905b8154815290600101906020018083116115c357829003601f168201915b50505050508152602001600282015481526020016003820160009054906101000a900460ff16600281111561161857611617611ae1565b5b600281111561162a57611629611ae1565b5b81526020016003820160019054906101000a900460ff16600681111561165357611652611ae1565b5b600681111561166557611664611ae1565b5b815250509050919050565b600360003373ffffffffffffffffffffffffffffffffffffffff1673ffffffffffffffffffffffffffffffffffffffff16815260200190815260200160002060009054906101000a900460ff16806117155750600260009054906101000a900473ffffffffffffffffffffffffffffffffffffffff1673ffffffffffffffffffffffffffffffffffffffff163373ffffffffffffffffffffffffffffffffffffffff16145b611754576040517f08c379a000000000000000000000000000000000000000000000000000000000815260040161174b906123b2565b60405180910390fd5b60006001600083815260200190815260200160002090506000600281111561177f5761177e611ae1565b5b8160030160009054906101000a900460ff1660028111156117a3576117a2611ae1565b5b146117e3576040517f08c379a00000000000000000000000000000000000000000000000000000000081526004016117da906129ec565b60405180910390fd5b60018160030160006101000a81548160ff0219169083600281111561180b5761180a611ae1565b5b0217905550817fd26d73beab97391bb9b226331b35668847e983fc340816389ece17cac75fd2b260405160405180910390a25050565b6040518060a00160405280600073ffffffffffffffffffffffffffffffffffffffff16815260200160608152602001600081526020016000600281111561188b5761188a611ae1565b5b8152602001600060068111156118a4576118a3611ae1565b5b81525090565b6000604051905090565b600080fd5b600080fd5b6000819050919050565b6118d1816118be565b81146118dc57600080fd5b50565b6000813590506118ee816118c8565b92915050565b60006020828403121561190a576119096118b4565b5b6000611918848285016118df565b91505092915050565b61192a816118be565b82525050565b60008115159050919050565b61194581611930565b82525050565b600060e082019050611960600083018a611921565b61196d602083018961193c565b61197a6040830188611921565b6119876060830187611921565b6119946080830186611921565b6119a160a0830185611921565b6119ae60c083018461193c565b98975050505050505050565b60006020820190506119cf6000830184611921565b92915050565b600081519050919050565b600082825260208201905092915050565b6000819050602082019050919050565b600073ffffffffffffffffffffffffffffffffffffffff82169050919050565b6000611a2c82611a01565b9050919050565b611a3c81611a21565b82525050565b600081519050919050565b600082825260208201905092915050565b60005b83811015611a7c578082015181840152602081019050611a61565b60008484015250505050565b6000601f19601f8301169050919050565b6000611aa482611a42565b611aae8185611a4d565b9350611abe818560208601611a5e565b611ac781611a88565b840191505092915050565b611adb816118be565b82525050565b7f4e487b7100000000000000000000000000000000000000000000000000000000600052602160045260246000fd5b60038110611b2157611b20611ae1565b5b50565b6000819050611b3282611b10565b919050565b6000611b4282611b24565b9050919050565b611b5281611b37565b82525050565b60078110611b6957611b68611ae1565b5b50565b6000819050611b7a82611b58565b919050565b6000611b8a82611b6c565b9050919050565b611b9a81611b7f565b82525050565b600060a083016000830151611bb86000860182611a33565b5060208301518482036020860152611bd08282611a99565b9150506040830151611be56040860182611ad2565b506060830151611bf86060860182611b49565b506080830151611c0b6080860182611b91565b508091505092915050565b6000611c228383611ba0565b905092915050565b6000602082019050919050565b6000611c42826119d5565b611c4c81856119e0565b935083602082028501611c5e856119f1565b8060005b85811015611c9a5784840389528151611c7b8582611c16565b9450611c8683611c2a565b925060208a01995050600181019050611c62565b50829750879550505050505092915050565b60006020820190508181036000830152611cc68184611c37565b905092915050565b611cd781611930565b8114611ce257600080fd5b50565b600081359050611cf481611cce565b92915050565b60008060408385031215611d1157611d106118b4565b5b6000611d1f858286016118df565b9250506020611d3085828601611ce5565b9150509250929050565b600080fd5b600080fd5b7f4e487b7100000000000000000000000000000000000000000000000000000000600052604160045260246000fd5b611d7c82611a88565b810181811067ffffffffffffffff82111715611d9b57611d9a611d44565b5b80604052505050565b6000611dae6118aa565b9050611dba8282611d73565b919050565b600067ffffffffffffffff821115611dda57611dd9611d44565b5b611de382611a88565b9050602081019050919050565b82818337600083830152505050565b6000611e12611e0d84611dbf565b611da4565b905082815260208101848484011115611e2e57611e2d611d3f565b5b611e39848285611df0565b509392505050565b600082601f830112611e5657611e55611d3a565b5b8135611e66848260208601611dff565b91505092915050565b60078110611e7c57600080fd5b50565b600081359050611e8e81611e6f565b92915050565b60008060408385031215611eab57611eaa6118b4565b5b600083013567ffffffffffffffff811115611ec957611ec86118b9565b5b611ed585828601611e41565b9250506020611ee685828601611e7f565b9150509250929050565b611ef981611a21565b8114611f0457600080fd5b50565b600081359050611f1681611ef0565b92915050565b600060208284031215611f3257611f316118b4565b5b6000611f4084828501611f07565b91505092915050565b611f5281611a21565b82525050565b600082825260208201905092915050565b6000611f7482611a42565b611f7e8185611f58565b9350611f8e818560208601611a5e565b611f9781611a88565b840191505092915050565b611fab81611b37565b82525050565b611fba81611b7f565b82525050565b600060a082019050611fd56000830188611f49565b8181036020830152611fe78187611f69565b9050611ff66040830186611921565b6120036060830185611fa2565b6120106080830184611fb1565b9695505050505050565b600060208201905061202f6000830184611f49565b92915050565b600060208201905061204a600083018461193c565b92915050565b600060a0830160008301516120686000860182611a33565b50602083015184820360208601526120808282611a99565b91505060408301516120956040860182611ad2565b5060608301516120a86060860182611b49565b5060808301516120bb6080860182611b91565b508091505092915050565b600060208201905081810360008301526120e08184612050565b905092915050565b7f566f74696e6720696e2070726f67726573730000000000000000000000000000600082015250565b600061211e601283611f58565b9150612129826120e8565b602082019050919050565b6000602082019050818103600083015261214d81612111565b9050919050565b7f416c726561647920657865637574656400000000000000000000000000000000600082015250565b600061218a601083611f58565b915061219582612154565b602082019050919050565b600060208201905081810360008301526121b98161217d565b9050919050565b7f50726f706f73616c206661696c65640000000000000000000000000000000000600082015250565b60006121f6600f83611f58565b9150612201826121c0565b602082019050919050565b60006020820190508181036000830152612225816121e9565b9050919050565b7f4e487b7100000000000000000000000000000000000000000000000000000000600052602260045260246000fd5b6000600282049050600182168061227357607f821691505b6020821081036122865761228561222c565b5b50919050565b7f4e487b7100000000000000000000000000000000000000000000000000000000600052601160045260246000fd5b60006122c6826118be565b91506122d1836118be565b92508282039050818111156122e9576122e861228c565b5b92915050565b7f4e487b7100000000000000000000000000000000000000000000000000000000600052603260045260246000fd5b6000612329826118be565b91507fffffffffffffffffffffffffffffffffffffffffffffffffffffffffffffffff820361235b5761235a61228c565b5b600182019050919050565b7f4e6f7420617574686f72697a6564000000000000000000000000000000000000600082015250565b600061239c600e83611f58565b91506123a782612366565b602082019050919050565b600060208201905081810360008301526123cb8161238f565b9050919050565b7f566f74696e67206e6f7420737461727465640000000000000000000000000000600082015250565b6000612408601283611f58565b9150612413826123d2565b602082019050919050565b60006020820190508181036000830152612437816123fb565b9050919050565b7f566f74696e6720656e6465640000000000000000000000000000000000000000600082015250565b6000612474600c83611f58565b915061247f8261243e565b602082019050919050565b600060208201905081810360008301526124a381612467565b9050919050565b7f416c726561647920766f74656400000000000000000000000000000000000000600082015250565b60006124e0600d83611f58565b91506124eb826124aa565b602082019050919050565b6000602082019050818103600083015261250f816124d3565b9050919050565b6000612521826118be565b915061252c836118be565b92508282019050808211156125445761254361228c565b5b92915050565b6000819050919050565b6000819050919050565b600061257961257461256f8461254a565b612554565b6118be565b9050919050565b6125898161255e565b82525050565b60006040820190506125a4600083018561193c565b6125b16020830184612580565b9392505050565b60008190508160005260206000209050919050565b60006020601f8301049050919050565b600082821b905092915050565b60006008830261261a7fffffffffffffffffffffffffffffffffffffffffffffffffffffffffffffffff826125dd565b61262486836125dd565b95508019841693508086168417925050509392505050565b600061265761265261264d846118be565b612554565b6118be565b9050919050565b6000819050919050565b6126718361263c565b61268561267d8261265e565b8484546125ea565b825550505050565b600090565b61269a61268d565b6126a5818484612668565b505050565b5b818110156126c9576126be600082612692565b6001810190506126ab565b5050565b601f82111561270e576126df816125b8565b6126e8846125cd565b810160208510156126f7578190505b61270b612703856125cd565b8301826126aa565b50505b505050565b600082821c905092915050565b600061273160001984600802612713565b1980831691505092915050565b600061274a8383612720565b9150826002028217905092915050565b61276382611a42565b67ffffffffffffffff81111561277c5761277b611d44565b5b612786825461225b565b6127918282856126cd565b600060209050601f8311600181146127c457600084156127b2578287015190505b6127bc858261273e565b865550612824565b601f1984166127d2866125b8565b60005b828110156127fa578489015182556001820191506020850194506020810190506127d5565b868310156128175784890151612813601f891682612720565b8355505b6001600288020188555050505b505050505050565b600060408201905081810360008301526128468185611f69565b90506128556020830184611fb1565b9392505050565b7f4e6f74206f776e65720000000000000000000000000000000000000000000000600082015250565b6000612892600983611f58565b915061289d8261285c565b602082019050919050565b600060208201905081810360008301526128c181612885565b9050919050565b7f496e76616c696420737461747573000000000000000000000000000000000000600082015250565b60006128fe600e83611f58565b9150612909826128c8565b602082019050919050565b6000602082019050818103600083015261292d816128f1565b9050919050565b7f43616e6e6f7420657363616c6174650000000000000000000000000000000000600082015250565b600061296a600f83611f58565b915061297582612934565b602082019050919050565b600060208201905081810360008301526129998161295d565b9050919050565b7f416c72656164792070726f636573736564000000000000000000000000000000600082015250565b60006129d6601183611f58565b91506129e1826129a0565b602082019050919050565b60006020820190508181036000830152612a05816129c9565b905091905056fea26469706673582212206b3beb21a956b6186427471933d73137177fe5d0f1051c536abcee3a7567666f64736f6c63430008140033",
  "linkReferences": {},
  "deployedLinkReferences": {}
}